:100000000C9489040C94A6040C94A6040C940A2164
:100010000C94A6040C94A6040C94A6040C94A604B8
:100020000C94A6040C94A6040C944A1E0C94221F53
:100030000C94CA110C94A6040C94A6040C94A60467
:100040000C94A6040C94A6040C94A6040C94A60488
:100050000C94A6040C94261E0C94A6040C94A604DE
:100060000C94A6040C94A6040C94A6040C94A60468
:100070000C94A6040C94A6040C94A6040C94A60458
:100080000C94A6040C94A6040C94A6040C94A60448
:100090000C94A6040C94A6040C94A6040C94A60438
:1000A0000C94A6040C94A6040C94A60400AF00AE15
:1000B0000000000000003E5B4F5B3E003E6B4F6B5C
:1000C0003E001C3E7C3E1C00183C7E3C18001C5729
:1000D0007D571C001C5E7F5E1C0000183C18000051
:1000E000FFE7C3E7FF00001824180000FFE7DBE785
:1000F000FF0030483A060E00262979292600407F65
:1001000005050700407F05253F005A3CE73C5A00A3
:100110007F3E1C1C0800081C1C3E7F0014227F220E
:1001200014005F5F005F5F0006097F017F000066CB
:1001300089956A0060606060600094A2FFA29400EC
:1001400008047E04080010207E20100008082A1CE5
:100150000800081C2A0808001E10101010000C1EB1
:100160000C1E0C0030383E383000060E3E0E0600E5
:1001700000000000000000005F0000000007000712
:100180000000147F147F1400242A7F2A12002313F6
:10019000086462003649562050000008070300003A
:1001A000001C224100000041221C00002A1C7F1C70
:1001B0002A0008083E080800008070300000080887
:1001C0000808080000006060000020100804020019
:1001D0003E5149453E0000427F4000007249494976
:1001E00046002141494D33001814127F1000274565
:1001F000454539003C4A4949310041211109070070
:10020000364949493600464949291E000000140074
:1002100000000040340000000008142241001414C3
:1002200014141400004122140800020159090600A8
:100230003E415D594E007C1211127C007F494949B4
:1002400036003E41414122007F4141413E007F490D
:10025000494941007F09090901003E4141517300AC
:100260007F0808087F0000417F4100002040413F97
:1002700001007F08142241007F40404040007F027F
:100280001C027F007F0408107F003E4141413E0078
:100290007F09090906003E4151215E007F091929A5
:1002A000460026494949320003017F0103003F40CF
:1002B00040403F001F2040201F003F4038403F008B
:1002C0006314081463000304780403006159494D62
:1002D0004300007F4141410002040810200000411A
:1002E00041417F00040201020400404040404000C0
:1002F0000003070800002054547840007F2844443D
:100300003800384444442800384444287F00385496
:100310005454180000087E0902001824241C780098
:100320007F080404780000447D4000002040403DE8
:1003300000007F102844000000417F4000007C0442
:10034000780478007C080404780038444444380079
:100350007C1824241800182424187C007C08040429
:10036000080048545454240004043F4424003C40F2
:1003700040207C001C2040201C003C4030403C00C1
:100380004428102844004C9090907C004464544CC5
:1003900044000008364100000000770000000041E2
:1003A000360800000201020402003C2623263C001D
:1003B000000000000000000000000000000000003D
:1003C000C0E0F0F8F81800C0F0FCFEFFFFFFFFFFF0
:1003D000FFFF7E00000000000000000080C0E0E0A1
:1003E000E0E0E0E0E0E0C0800000000080C0E0E08D
:1003F000E0E0E0E0E0E0C080000000E0E0C0C0E05D
:10040000E0E0E00000E0E0C0C0E0E0E0E0E0C0806C
:100410000000000080C0E0E0E0E0E0E0E0E0C0805C
:100420000000000000000000000000000000E0F0FC
:10043000F0F0E0ECEEF7F37020007C7C7C7E007E38
:100440007E7E7F7F7F000080C0E07E5B4F5BFEC0D2
:100450000000C000DCD7DEDEDED7DC00C00000001C
:10046000000000000000000000000000000000008C
:10047000000000000000000000F8FCFEFFE000FFAC
:10048000FFFFFFFFFF80FFFFFFFFFFFFFFFFFF1FDB
:100490000701000000000000000000FFFFFF8100D6
:1004A000000000000081C3C3C30000FFFFFF810004
:1004B000000000000081FFFFFF0000FFFFFF0100C0
:1004C0000000000000FFFFFF010000000001FFFF2F
:1004D000FF0000FFFFFF9D1C1C1C1C1C1C9DDFDF80
:1004E000DF000000000000000000000000000F1FFF
:1004F0003F7F7F7F7F7F3F1E0C001F1F1F3F003FFE
:100500003F3F7F7F7F00307B7F7830202030787FB7
:100510003B0003000F7F0F0F0F7F0F000300000051
:1005200000000000000000000000000000000000CB
:10053000000000000000000000030F1F3F3F3F3F8E
:100540001F1F3F3F7F7F7F3F3F1F3F7F7F7F7F7C1E
:100550007878381C0F000000000000000103070736
:10056000070707070707030100000000010307074B
:100570000707070707070301000000070707000038
:100580000000000000070707000000000000070748
:100590000700000001030707070707070707030114
:1005A000000000000000000000000000000000004B
:1005B000000000000000000000000000000000003B
:1005C000000000000000000000000000000000002B
:1005D000000000000000000000000000000000001B
:1005E000000000000000000000000000000000000B
:1005F00005010980A101850319012AB7001501260B
:10060000B700950175108100C0050C0901A1018595
:100610000419012AA002150126A002950175108176
:1006200000C005010906A1018506050719E029E7B3
:10063000150025019508750181020507190029EFAC
:100640001500250195F0750181020508190129059C
:10065000950575019102950175039101C005010988
:1006600006A101050719E029E71500250195087580
:100670000181029501750881010507190029FF15FF
:100680000026FF0095067508810005081901290557
:10069000950575019102950175039101C009023B11
:1006A00000020100A0FA0904000001030101000991
:1006B0002111010001224000070581030800010902
:1006C0000401000103000000092111010001226D55
:1006D000000705820320000112010002000000084B
:1006E000534601000100010200010C0343006F00AA
:1006F00072006E0065000000100366006F006F005E
:100700007300740061006E0000000403090400DA45
:100710000281FFD9F1DB20A4A62EAF00A0C000A16A
:10072000C800AED580A81FD300408D142000808162
:1007300082838485868788898A8B8C8D8E8F909121
:10074000929394A0A1A2A3A4A5A6A7A8A9AAABAC82
:10075000ADAEAFB0B1B2B3B4C0C1C2C3C4C5C6C7F9
:10076000C8C9CACBCCCDCECFD0D1D2D3D40041646E
:100770006A757374005261697365004C6F776572B6
:100780000044656661756C74004C617965723A204D
:10079000002B0014001A000800150017002900049F
:1007A000001600070009000A00E0001D001B0006FB
:1007B0000019000500000000000000E20021522C9A
:1007C000002A00130012000C0018001C0034003333
:1007D000000F000E000D000B00E10038003700365E
:1007E0000010001100000000000000E60022522866
:1007F000002B001E001F00200021002200E00050FE
:1008000000510052004F000000E1007F0081008095
:100810000000000000000000000000E30001002CC8
:10082000002A0027002600250024002300000000E5
:10083000004F00520051005000E500000000000091
:100840000000000000000000000000E60023522825
:10085000002B001E021F02200221022202E00000E3
:10086000000000000000000000E100640031020010
:100870000000000000000000000000E30023522CF4
:10088000002A002702260225022402230235003115
:100890000030002F002E002D003502310230022FD3
:1008A000022E022D02000000000000E600010028D8
:1008B000003A003B003C003D003E003F00000000CD
:1008C0000000000000000000000000000000000028
:1008D0000000000000000000000000000001002CEB
:1008E0000045004400430042004100400000004B2E
:1008F000004A0049000000000000004E004D004C7E
:1009000000000000000000000000000000010028BE
:10091000000011241FBECFEFDAE0DEBFCDBF11E033
:10092000A0E0B1E0E2E8FBE402C005900D92A03C3B
:10093000B107D9F725E0A0ECB1E001C01D92AA32C1
:10094000B207E1F70E94531A0C948C250C94000016
:100950009093EB048093EA0408959093ED048093C0
:10096000EC04089521E030E002C0220F331F8A9585
:10097000E2F78091EC049091ED04822B932B0E947E
:10098000AD04089521E030E002C0220F331F8A95A4
:10099000E2F7209530958091EC049091ED0482234C
:1009A00093230E94AD040895983098F5863088F519
:1009B000E82FF0E086E0989FE00DF11D11248E2FC6
:1009C000877041E001C0440F8A95EAF783E0F6950D
:1009D000E7958A95E1F7EE0FFF1FEE0FFF1FEA5430
:1009E000FB4F20E030E070E05191DF011197CB0127
:1009F000022E02C0969587950A94E2F78170819540
:100A00008527842385278C932F5F3F4F2430310522
:100A100059F70895983078F5863068F5E82FF0E0BA
:100A200086E0989FE00DF11D11249E2F977083E0C2
:100A3000F695E7958A95E1F7EE0FFF1FEE0FFF1F82
:100A4000EA54FB4F40E050E080E0219130E0092E75
:100A500002C0369527950A94E2F721703327042EB9
:100A600001C0220F0A94EAF7822B4F5F5F4F443098
:100A7000510559F7089580E008958091F30490910D
:100A8000F204981301C008958F5F8770FACF909198
:100A900028019923E1F09091EF0497FF18C0E82F07
:100AA000E695E695E695803FF0F4F0E0EE53FE4FD4
:100AB000877021E030E0A90102C0440F551F8A95DC
:100AC000E2F7CA0180959281892382830895E4EC3C
:100AD000F1E09191891303C0DF0111971C9251E05D
:100AE000EA3CF507B1F708952091EE048095822342
:100AF0008093EE04982F9770911113C030E0482F27
:100B0000082E000C550B2417350759F09091F0046E
:100B100092FF07C08595859585950E94C204109225
:100B2000EE040895982F90958091E804892380938E
:100B3000E80408958091E90481111092E904089570
:100B40007830B8F46630A8F48430B0F4E62FF0E0E2
:100B500096E0799FE00DF11D112490E3899FE00D4F
:100B6000F11D1124EE0FFF1FEF56F84F8591949160
:100B7000089580E090E0089581E0FCCF803E9105EB
:100B8000D1F1C8F48133910509F47FC048F489326A
:100B9000910509F46FC08A32910509F47DC008956A
:100BA00089339105E1F082389105C9F085339105CB
:100BB00009F45BC00895843E9105D1F148F4823E6A
:100BC000910531F1833E910541F181EE90E0089568
:100BD000863E9105C1F1873E9105E1F1089520918E
:100BE000EF042370211165C02091F00423FF14C08D
:100BF00089E290E008952091EF0420FD43C03091F8
:100C0000F00430FF09C024FF4EC080E090E008955A
:100C10002091EF0422FDF7CF08952091EF0422FDEB
:100C200045C03091F00430FD44C024FFF5CFEDCF36
:100C30002091F00421FFF0CF8091EF0484FDE5CFF7
:100C400087EE90E008952091EF0423FFE5CF24FD87
:100C5000DCCFF6CF2091EF0423FD2EC03091F004BD
:100C600031FFE3CF84EE90E008952091EF0425FF5B
:100C7000D3CFBECF2091EF0425FD21C02091F004F9
:100C800023FFCACF89E390E008952091EF0426FF67
:100C9000C3CF8AE290E008952091EF0426FFBCCFF5
:100CA00081E390E0089583EE90E0089582EE90E075
:100CB000089580EE90E0089586EE90E0089585E333
:100CC00090E0AACF2091EF0422FF06C0982F9871E0
:100CD0009830C1F4877F84609091F004392F31708F
:100CE000927023FF21C0482F4871483191F4877ECC
:100CF00084619923B1F0982F9171913191F48E7E96
:100D000088610FC0982F9471943031F78B7F886081
:100D1000E3CF482F4471443139F48B7E88619111BF
:100D200018C024FD877E0895332369F0382F387169
:100D3000383019F4877F8160DCCF382F3171313042
:100D400011F48E7F8860992361F3982F9871983100
:100D500091F6877E8161E5CF1F93CF93DF930E9449
:100D6000BE05EC01811522E5920708F053C08115FC
:100D700040E5940708F0DDC0803E9105F8F48D3C15
:100D8000910508F0AEC0883A910580F4853A910546
:100D900008F099C08130910521F00497813A9105BE
:100DA00050F4CE01DF91CF911F910895885A910997
:100DB000499708F48BC0C0E0D0E0F3CF811550E430
:100DC0009507F8F4C11580E2D80708F0CBC0C83EFB
:100DD000D10538F3CE019A9581159F4160F78D2F8B
:100DE0000E946206182FCE0199270E94BE05212F6E
:100DF00030E0322F2227E901CC27DF71C82BD92B15
:100E0000D0CF99270E94BE05CC27DF70C82BD92BE5
:100E1000D06AC7CF803842E59407C8F5803652E5DE
:100E2000950708F067C0C03482E5D807B0F08C2F72
:100E300086958695877020E2829FC0011124C37039
:100E400021E030E0A90102C0440F551FCA95E2F726
:100E5000EA01C82BD92BDC68A4CFC03252E5D507F4
:100E600008F041C08C2F8695869520E2829FC001B4
:100E70001124C37021E030E0A90102C0440F551FC6
:100E8000CA95E2F7EA01C82BD92BDD688ACF803CEE
:100E900052E5950760F48F71C03AD24508F03FC023
:100EA00090E0982F8827EC01C46FD06A7ACF805CDD
:100EB0009245809708F07FCFDC2FCC27CC27DF71BD
:100EC000C06FD06A6ECFA497D0646BCFC85AD0E001
:100ED000CC0FDD1FC25BDE4F0990D881C02DD464DA
:100EE00060CFD0655ECFCF71D0E0DC2FCC27C16F53
:100EF000D06A57CF86958695877020E2829FC00181
:100F00001124C37021E030E0A90102C0440F551F35
:100F1000CA95E2F7EA01C82BD92BDA6842CF0E94C2
:100F20006206C82FD0E0DC2FCC27CC27DF71D0623F
:100F300038CF8F710E94620665E0D695C7956A9595
:100F4000E1F7CF70D0E0DC2FCC27282F30E084FFF2
:100F500005C054E0220F331F5A95E1F7C22BD32B63
:100F6000D0691FCF8D2F8F710E946206182FCE017E
:100F700099270E94BE05212F30E0322F22272227F9
:100F80003F71282B392BE901D2CFA0E0B0E0EBEC88
:100F9000F7E00C9442228C01E090EC04F090ED0418
:100FA0008091EA049091EB04E82AF92ACFE0D0E09E
:100FB000CC24C394D12CC6010C2E02C0880F991FDB
:100FC0000A94E2F78E219F21892B49F4219798F703
:100FD000B12C8B2DCDB7DEB7E9E00C945E22BC2E90
:100FE000B8018C2F0E94A0050E94AC06019771F3F6
:100FF000F0CF0F931F93CF93FC0182810081118169
:10100000882391F0662381F0C8010E94C507C82F8C
:10101000682FC8010E94D404B8018C2F0E94A0053B
:10102000CF911F910F910895C8010E940A05C82F02
:10103000F3CFCF93DF93D82FC92F0E94C5076D2F11
:101040007C2F0E94A0050E94AC06DF91CF910895ED
:10105000FC0183819481892BC9F08181908189234E
:101060008F3FA1F0808191810E941908282F9295CD
:101070009F70963091F060F4925F9F70923030F4E0
:1010800081E0203F79F030F4283E30F080E004C069
:101090009A5FF3CF243FD1F7089581E0283E18F0FE
:1010A000213FF9CF0895089580E00895F894E82F3E
:1010B000E295EF70F0E041A18F7021E030E0B901DE
:1010C00002C0660F771F8A95E2F7CB01962F9095A5
:1010D000942391A392A1892B82A378940895A3E0ED
:1010E000B0E0E5E7F8E00C9449229C0180912402ED
:1010F0009091250282179307A1F030932502209347
:101100002402E0919404F0919504309751F083E02B
:1011100089833B832A830680F781E02DCE010196E7
:1011200009952396E2E00C946522A3E0B0E0EBE998
:10113000F8E00C9449229C018091220290912302B4
:1011400082179307A1F03093230220932202E091AB
:101150009404F0919504309751F084E089833B83A7
:101160002A830680F781E02DCE010196099523960A
:10117000E2E00C9465229C01809128018823C1F053
:101180008091EF0487FF14C0862F869586958695FB
:10119000603FF8F4F901E80FF11D677021E030E0DD
:1011A00001C0220F6A95EAF78281822B828308951B
:1011B000F90132968FEF90E04191641751F08F3F23
:1011C00019F4411101C0892F9F5F9630A9F78F3F15
:1011D00009F40895280F311D87FD3A95F9016283BE
:1011E0000895A4E0B0E0E7EFF8E00C9449228FB74F
:1011F000F89420917B0430917C0440917D045091BF
:101200007E0429833A834B835C838FBF69817A8113
:101210008B819C812496E2E00C94652287E797E716
:10122000909301088093000888E19AE00FB6F89443
:10123000A895809360000FBE90936000FFCF8091CF
:10124000210208950895FC019B018091FF01909176
:1012500000028617970740F0672B29F48091E80079
:101260008E778093E800C90140E0009741F4411176
:1012700006C08091E80082FF2FC080E00895209191
:1012800090042223A9F12530A9F12091E80023FD43
:101290002DC02091E80022FDECCF2091E80020FF36
:1012A000E4CF3091F3002091F200009719F028303C
:1012B000310558F041E02830310509F040E0209137
:1012C000E8002E772093E800D0CF41914093F100C1
:1012D00001972F5F3F4FE9CF80919004882341F021
:1012E000853041F08091E80083FFC3CF81E008950D
:1012F00082E0089583E008958091F90187FF13C08B
:101300008091E80082FF06C08091E8008B7780938F
:10131000E80004C0809190048111F2CF089580917B
:1013200090048823D9F38091E80080FFF8CF809162
:10133000E8008E77ECCF2091E4003091E50095E64F
:10134000A9018091EC008170882331F08091E80040
:1013500080FF06C080E008952091E80022FD1BC0B8
:1013600080919004882391F0853091F08091EB007A
:1013700085FD10C02091E4003091E500421753072D
:1013800001F391509111DCCF84E0089582E008953B
:1013900083E0089581E00895E8EDF0E080818E7F9C
:1013A00080831092E2001092DA001092E100A0EE29
:1013B000B0E08C9181608C9380818F77808319BCA1
:1013C000A7EDB0E08C918E7F8C9380818F7E80839F
:1013D0001092F8010895FC01AC014C5F5F4F8FEF54
:1013E00091E32191822728E030E087FF0BC0880F2E
:1013F00089272150310921153105B9F7E417F5077F
:1014000081F70895880FF5CF982FE42FE27090931D
:10141000E900891308C0762F242F50E0E11111C094
:1014200091E0980FF4CF7091EC002091ED00509175
:10143000F00021FD06C09F5F973049F78093E900D7
:1014400008953091EB003E7F3093EB003091ED003A
:101450003D7F3093ED003091EB0031603093EB0035
:101460007093EC002093ED005093F0002091EE007B
:1014700027FDE1CF0895A0E0B0E0E1E4FAE00C94AC
:101480004322C8EDD0E088818F7E8883E7EDF0E0CD
:1014900080818160808384E082BF81E08093F80155
:1014A00088818E7F888302EE10E0F801108210920E
:1014B000DA0081EEC82ED12CF601108288818F7758
:1014C000888388818068888388818F7D888319BC20
:1014D000109290041092F701109231021092F601CE
:1014E00090EEE92EF12CF70180818B7F808388813B
:1014F0008160888342E060E080E00E94040AF60197
:1015000080818E7F8083F8018081816080838081EB
:1015100088608083F70180818E7F808388818061ED
:101520008883CDB7DEB7E8E00C945F22E091F30446
:101530009091F20426E0E91302C080E00895AE2FF6
:10154000B0E02E9FF0011124EC50FB4F3181361397
:1015500006C03081381303C03281341304C0FD014A
:101560003196E770E8CF81E0089580919104811170
:1015700010C08091D80080618093D8008AE18A955C
:10158000F1F700C08091D90080FF0AC081E080930C
:10159000910481E090919104913009F080E00895E8
:1015A00082E0809391040E94CC0910929004F1CFC4
:1015B0000E94B50A882359F0E0919404F0919504B3
:1015C000309729F00190F081E02D0995089580E091
:1015D00008950F931F93CF93DF93EB018A019091AE
:1015E0009004943079F58093E9008FEF9091E800B2
:1015F00095FD07C095ED9A95F1F700008150811196
:10160000F5CF8091E80085FF1DC00E949B098111E4
:1016100014C08091E80085FD06C08091E8008E77B7
:101620008093E800F2CF88818093F1000150110986
:101630000115110511F02196ECCF8091E8008E770D
:101640008093E800DF91CF911F910F910895CF9380
:10165000DF93D82FC92F80912801811113C048E052
:1016600050E06D2F792F81E00E94E90A80E2ED2F92
:10167000FC2FA1E0B2E001900D928A95E1F7DF9195
:10168000CF9108958091EF0487FD06C048E081E086
:1016900050E06D2F7C2FE8CF40E282E0F9CFBC0113
:1016A00043E050E082E00E94E90A0895A0E0B0E043
:1016B000ECE5FBE00C944122F82EE92EB62EA72E85
:1016C0008A018091F401CC24C394D12C8A3018F47F
:1016D0008AE0C82ED12CC1E0D0E06B2D7A2D8F2D61
:1016E0009E2DF8010995811116C02196CC16DD06B4
:1016F00094F0CC9FC001CD9F900D900D112420E05F
:1017000030E045E34A95F1F700002F5F3F4F28177F
:101710003907B9F7E2CFCDB7DEB7EAE00C945D2226
:101720009091F00492FB222720F9281779F080FB92
:1017300092F99093F0046091EF047091F00484E0CA
:1017400090E00E94762582E00E94740508958091C1
:10175000E8049091F104892B8093C2019091E904EF
:101760009923D9F0892B8093C20180912801882385
:1017700009F442C08091EF0487FF3EC08DE190E004
:1017800024EC31E0F90140812F5F3F4F41119F5F11
:101790008150C0F791110E949A0540E250E066E93D
:1017A00074E082EC91E00E948B22892B21F180E28F
:1017B000E2ECF1E0A6E9B4E001900D928A95E1F740
:1017C000E0919404F09195043097A9F0809128015C
:1017D000882359F08091EF0487FF07C08091C201F0
:1017E0008093C30186E08093C2010280F381E02DE3
:1017F00082EC91E00995089585E0C1CFCF93C82F81
:101800008823C1F18CEF8C0F813AB0F580912801CB
:10181000882301F18091EF0487FF1CC0EC2FE6952F
:10182000E695E695F0E0EE53FE4F828190E04C2F76
:10183000477021E030E002C0220F331F4A95E2F7E3
:1018400082239323892B79F08C2F0E9447050E94D5
:10185000A70B09C0E4ECF1E08191C817A9F321E0DE
:10186000EA3CF207C9F76C2F82EC91E00E94BB08BA
:101870000E94A70BCF91089580E28C0F883068F406
:10188000C77081E090E001C0880FCA95EAF7C09167
:10189000E804C82BC093E804EBCF8BE58C0F8330B2
:1018A00038F42C2F2452330BC9010E946F08E2CF69
:1018B000C85ACB31F8F6EC2FF0E0EE0FFF1FE25BD9
:1018C000FE4F808191810E949508D4CF882339F101
:1018D0009CEF980F913A28F40E9447050E94A70BAD
:1018E000089590E2980F983050F4877091E001C00D
:1018F000990F8A95EAF7892F0E949205EFCF9BE511
:10190000980F933028F480E090E00E946F080895CB
:10191000885A8B3120F480E090E00E949508089569
:10192000882339F09091E804892B8093E8040E9481
:10193000A70B0895882321F00E9492050E94A70B0F
:1019400008951092E80480912801E4ECF1E08823E6
:10195000B1F08091EF0487FF12C08EE1DF011D928C
:101960008A95E9F780E090E00E946F0880E090E0BF
:101970000E9495081092F1040E94A70B089586E03A
:10198000EDCF0E94A10C2FEF84E39CE0215080401A
:101990009040E1F700C0000088E19AE00FB6F894AB
:1019A000A895809360000FBE90936000FFCFAAE2DD
:1019B000B0E0EDEDFCE00C94482289EF91E0FC01F1
:1019C00001962091F100208322E081309207B9F73F
:1019D0008091FA01893009F456C0C8F4823009F4C4
:1019E000B2C0833009F481C0813071F18091E80088
:1019F00083FFE6C08091F9019091FA019A3008F0D6
:101A0000DFC0E92FF0E0E257FA4D0C947C228A30D7
:101A100009F488C08B3051F78091F901813231F798
:101A20008091FD019091FE01892B01F78091E800E2
:101A3000877F8093E8000E947C098091FB0180935E
:101A400028010E94A10CD2CF8091F901813A71F650
:101A50008091E800877F8093E8008091FD0190915C
:101A6000FE01892B61F060E080E090E070E00E9470
:101A700023098091E8008B778093E800B7CF60E27C
:101A800081E092E0F3CF8091F901813209F0AECF8D
:101A90008091FD019091FE01029708F0A7CF8091FF
:101AA000E800877F8093E8008091E80082FF18C0FB
:101AB0009091F3008091F200029731F48091F1004F
:101AC000813011F0863021F48091F1008093210261
:101AD0008091E8008B778093E8000E947C0986CF94
:101AE000809190048111E0CF81CF8091F901813AFA
:101AF00009F07CCF8091FD019091FE01892B09F0C6
:101B000075CF8091E800877F8093E8008091E8009E
:101B100080FFFCCF809128018093F1008091E80044
:101B20008E77D9CF8091F901813209F05FCF809112
:101B3000E800877F8093E8000E947C098091FC0187
:101B40008093F50153CF8091F901813A09F04ECF8E
:101B50008091E800877F8093E8008091E80080FF13
:101B6000FCCF8091F501D8CF803889F0823841F5DB
:101B70008091FD018F70873018F58093E900809186
:101B8000EB0085FB882780F91092E90006C0809160
:101B9000F60190913102911182609091E800977F57
:101BA0009093E8008093F1001092F1008091E8009A
:101BB0008E7723C0811116C08091FB01813011F115
:101BC0008091E80083FF0AC08091E800877F8093BE
:101BD000E8008091EB0080628093EB00AA96E3E03E
:101BE0000C946422823061F78091FB01882389F094
:101BF0001092E9008091E800877F8093E8000E94BE
:101C00007C09DECF81E0933009F080E080933102DF
:101C1000EFCF8091FD018F702FEF280F263080F6D7
:101C20008093E9002091EB0020FFE2CF933031F464
:101C30008091EB0080628093EB00DACF9091EB0013
:101C400090619093EB0021E030E0A90102C0440FC5
:101C5000551F8A95E2F74093EA001092EA008091BE
:101C6000EB008860E8CF8111ABCF1091FB011F77AB
:101C70008091E3008078812B8093E3008091E800DD
:101C8000877F8093E8000E947C098091E80080FFB4
:101C9000FCCF8091E30080688093E30083E0111122
:101CA00001C082E0809390048BCF8058823008F08E
:101CB00087CF4091FB015091FC014C3D83E05807D8
:101CC00099F583E08A838AE289834FB7F894DE012D
:101CD000139620E03EE051E2E32FF0E050935700EE
:101CE000849120FF03C082958F703F5F8F708A3090
:101CF000C8F0895C90E08D939D932F5F243161F74C
:101D00004FBF8091E800877F8093E8006AE270E02F
:101D1000CE0101960E9423098091E8008B77809381
:101D2000E8004ECF805DE6CF2091FD013091FE01AD
:101D3000852F99278330910509F160F48130910551
:101D400009F472C0029709F03BCF8BE390E0EDE914
:101D5000F6E029C08132910509F45AC0829709F052
:101D60002FCF2115310509F469C02130310509F063
:101D700027CF8DE690E0E0EFF5E015C0CA01992786
:101D80004130B1F18230910509F43AC0892B09F054
:101D900017CFEAE0F7E0E4918E2F90E0EAE0F7E079
:101DA000009709F40DCF2091E800277F2093E800E9
:101DB0002091FF01309100028217930708F49C01E3
:101DC00040E02115310509F03EC041113CC0809131
:101DD000E80082FDA1CF80919004882309F49CCF74
:101DE000853009F499CF8091E80083FFF0CF94CF3C
:101DF000E8EFF6E0E4918E2F90E0E8EFF6E0D0CF48
:101E0000EAEEF6E0E4918E2F90E0EAEEF6E0C8CF3D
:101E10002115310571F02130310509F0D1CE89E06D
:101E200090E0E8ECF6E0BFCF82E190E0E8EDF6E08C
:101E3000BACF89E090E0EFEAF6E0B5CF80E490E039
:101E4000EDE5F6E0B0CF80919004882309F464CFEB
:101E5000853009F461CF8091E80083FD5DCF8091EA
:101E6000E80082FDB4CF8091E80080FFAACF909176
:101E7000F3008091F2002115310519F088309105A9
:101E800050F041E0089709F040E08091E8008E773B
:101E90008093E80096CF44914093F1003196215011
:101EA00031090196E8CF803809F08ACE8091E800A8
:101EB000877F8093E8008091F7018093F10076CED0
:101EC00081117ECE1091FB01123008F079CE809105
:101ED000E800877F8093E8001093F7010E947C0957
:101EE000112381F084E08093900442E061EC81E072
:101EF0000E94040A42E261EC82E00E94040A80919E
:101F000090045ECE8091E30087FDECCF81E0EBCFC3
:101F1000A8E0B0E0EEE8FFE00C944822409177049E
:101F2000509178046091790470917A042FB7F894F5
:101F300080917B0490917C04A0917D04B0917E04FB
:101F40002FBF841B950BA60BB70B11E084369105B0
:101F5000A105B105A8F10E94B50A8823B1F10E943C
:101F6000F108462F572FBC014E5F5F4F6F4F7F4FD9
:101F700049835A836B837C83809121019091220154
:101F800081589B4F20912001422F50E0253010F0C6
:101F900044E050E0BE016F5F7F4F0E94982282E0D4
:101FA00090E00E94B021182F882351F00E94F10880
:101FB00060937704709378048093790490937A0403
:101FC000812F2896E3E00C9464220E94F1086D832F
:101FD0007E838F839887409173045091740460913D
:101FE0007504709176048D819E81AF81B885480F0C
:101FF000591F6A1F7B1FB8CFEF92FF921F93CF9399
:10200000DF9300D000D00F92CDB7DEB77B0180E028
:1020100090E00E94B021182F81111AC010E0809129
:10202000880490918904A0918A04B0918B04F701EF
:1020300080839183A283B383812F0F900F900F90A1
:102040000F900F90DF91CF911F91FF90EF90089527
:1020500080911301482F50E0882311F041E050E0B7
:10206000609114017091150161587B4FCE01059666
:102070000E94982240918C0450918D0460918E04AE
:1020800070918F042FB7F89480917B0490917C0419
:10209000A0917D04B0917E042FBF841B950BA60BED
:1020A000B70B84369105A105B10538F480E894E0BA
:1020B0000E94EB099D818917B9F181E090E00E94AF
:1020C000B021882309F4AACF80911B01482F50E04A
:1020D000853010F044E050E060911C0170911D01CA
:1020E00061587B4FCE0101960E94982280E894E0CF
:1020F0000E94EB099D81891391CF0E94F1086093A2
:102100008C0470938D0480938E0490938F04898146
:102110009A81AB81BC818093880490938904A093B9
:102120008A04B0938B047BCF8091800490918104CA
:10213000A0918204B091830489839A83AB83BC838A
:10214000E6CFA0E0B0E0E7EAF0E10C9443226C01B6
:102150007B0164E670E088E70E94711FEC0197FD47
:1021600011C08601EC0CFD1CF801849164E670E05E
:102170000E94E01FEC01892B29F40F5F1F4F0E1501
:102180001F0591F70E946220CE01CDB7DEB7E8E0CF
:102190000C945F2280917104882371F080916E0409
:1021A000882351F062E070E08EEA90E00E94A11076
:1021B000892B11F410926E040895A4E0B0E0E3EED0
:1021C000F0E10C944922809171048823F9F00E9477
:1021D000F108DC01CB01805A9541AF4FBF4F80938E
:1021E0006A0490936B04A0936C04B0936D04809187
:1021F0006E0481110BC062E070E08CEA90E00E94F6
:10220000A110892B19F481E080936E042496E2E0FA
:102210000C946522CF93DF93682F81E06A3019F028
:102220006D3031F480E00E948A11DF91CF910895E2
:10223000809143029091440226E0FC01AEEEB1E0B1
:1022400001900D922A95E1F7603E08F458C026E00F
:10225000FC0111922A95E9F7C0914302D091440202
:1022600046E050E0BE018EEE91E00E948B229E017E
:1022700026563240892B41F1C90145E09695879554
:102280004A95E1F741E050E0BA0102C0660F771FBE
:102290008A95E2F7CB016091680470916904862BFE
:1022A000972BB9016B5F7F4FE5E076956795EA95CF
:1022B000E1F702C0440F551F6A95E2F7842B952B76
:1022C00090936904809368042A5F3F4F40914502D0
:1022D000642F70E0C9010E942522481B463010F48B
:1022E000240F311D211572E0370710F020E030E097
:1022F0002A593D4F309344022093430296CFF6E093
:102300006F9FB001112460557F4F46E050E00E945E
:102310008222A2CFCF93382FE0914302F091440262
:10232000E656F24020914502622F70E0CF010E94F4
:102330002522281B822F332361F066E00E94702241
:10234000C82FC15010F4CF91089580E20E940A1165
:10235000F8CF9F01280F311D2115324018F080E081
:10236000E0E0F0E08E0F9F2F911D8A599D4F9093D2
:10237000440280934302E7CFCF93DF93EC01FE0149
:102380008491811103C0DF91CF9108950E940A11B9
:102390002196F5CF1F921FB61F9211248F939F9302
:1023A000AF93BF9380913002811113C080917B0461
:1023B00090917C04A0917D04B0917E044196A11D72
:1023C000B11D80937B0490937C04A0937D04B09313
:1023D0007E04BF91AF919F918F911F901FBE1F9060
:1023E00018952FB7F89480917B0490917C04A0916C
:1023F0007D04B0917E042FBF08959C014FB7F894DF
:1024000080917B0490917C04A0917D04B0917E0426
:102410004FBF821B930B08950F931F93CF93DF93AE
:10242000C62FD42F122F8823A9F06093E6040E94B0
:10243000F1119093ED018093EC01C77081E001C030
:10244000880FCA95EAF70E94900CDF91CF911F91F7
:102450000F9108958091E604681338C08091EC01D3
:102460009091ED010E94FD11883C910578F5CD1306
:102470000FC0812F0E94FE0B812F0E94660CD77027
:1024800081E001C0880FDA95EAF70E949A0CDDCF4F
:10249000C77001E0802F01C0880FCA95EAF70E943B
:1024A0009A0C80E28D0F883050F48D2F877001C018
:1024B000000F8A95EAF7802F0E94900CDACF812FC7
:1024C0000E94FE0B812F0E94660CBFCFC77081E077
:1024D00001C0880FCA95EAF7D8CFA0E0B0E0E3E7E3
:1024E000F2E10C9443227C01FC01908181812381E3
:1024F0003481232B09F45FC089238F3F09F45BC02B
:1025000061E0C7010E94F907EC01F701828188238D
:1025100079F140813181CE01905281159043A0F52F
:10252000CE01992720E28C33910520F4FC01EC5771
:10253000FE4F20811F922F939F938F931F924F9353
:102540001F923F9389E291E09F938F931F9288E1BE
:102550008F938EEC94E09F938F930E94A1222DB7CE
:102560003EB7225F3F4F0FB6F8943EBF0FBE2DBF60
:10257000F7018281FE01E851FC47E730F105B8F52B
:10258000E856FA4D0C947C22CE01CCCF26E241EEE7
:1025900061EE0E940C128091EE048770882359F03E
:1025A000F7018281882339F08091F00482FF03C013
:1025B00082E00E947405CDB7DEB7E8E00C945F229C
:1025C00027E245EE65EEE5CF26E241EE60EEE1CF93
:1025D00027E245EE64EEDDCF26E241EE62EED9CF92
:1025E00027E245EE66EED5CF28E241E0EBCF811140
:1025F0000CC0C631DC4709F00DC18091E7048111A0
:10260000F2C089E20E944705EBC01092E604CE01B9
:102610009057839708F0CFC084E090E00E94522545
:102620009093F0048093EF04FE01E150F047E23212
:10263000F10520F4E156FA4D0C947C228091EF04D0
:1026400081608093EF046091EF047091F00484E066
:1026500090E00E9476250E94A10C9DCF8091F0040D
:1026600088608093F004EFCF8091EF048260E9CF1F
:102670008091EF048460E5CF8091EF048860E1CF22
:102680008091F0048160EDCF8091F0048260E9CF09
:102690008091EF048061D5CF8091EF048062D1CF2B
:1026A0008091EF048064CDCF0E94A10C8091EF0453
:1026B0008068C7CF8091EF048C60C3CF8091F00415
:1026C0008360CFCF8091EF048E7FBBCF8091F004E9
:1026D000877FC7CF8091EF048D7FB3CF8091EF04C8
:1026E0008B7FAFCF8091EF04877FABCF8091F004D9
:1026F0008E7FB7CF8091F0048D7FB3CF8091EF04B0
:102700008F7E9FCF8091EF048F7D9BCF8091EF04D0
:102710008F7B97CF0E94A10C8091EF048F7791CF90
:102720008091EF04837F8DCF8091F0048C7F99CFCF
:102730008091EF0482FB992790F921E0922790FB8A
:1027400082F990FB83F97DCF8091F004982F9095CA
:1027500091708E7F892B90FB81F983CF9091EF044C
:10276000892F8F7B96FF80646CCF0E94A10C909183
:10277000EF04892F97FB87F9805863CF61E08EE0E3
:1027800090E00E9458255FCF60E0F9CF9091EF0470
:10279000892F8F7E94FF806154CF9091EF04892F11
:1027A0008E7F90FF81604DCF9091F004892F877FBD
:1027B00093FF886056CFC6312CE7D207B1F48091E1
:1027C000E8048A7A91E0811101C090E09093E704D7
:1027D00065E3811101C069E282EC91E00E94BB08CF
:1027E0000E94A70BD8CE85E30DCFCA353CE7D307AF
:1027F00009F49FC008F076C0C1309CE7D90709F4FE
:1028000096C0C330ECE7DE0709F48BC0C115DC4786
:1028100009F47AC0F701828100811181882309F4CB
:102820008CC0C8010E94C507C82F682FC8010E942C
:10283000D404B8018C2F0E94A0050E94AC06D82FAA
:10284000C92FF701D280C580C2948FE0C822809141
:10285000EE0487708823E9F00D2DDD20D9F0892F53
:10286000807F803451F080E28D0F883090F0C1106D
:1028700004C0892F807E803261F08091F00482FF55
:1028800008C082E00E9474058091EE04877001E028
:10289000811100E08C2F82958F70883009F435C14A
:1028A00008F06FC0843008F04DC01C2F1F708230BC
:1028B00008F478C0C07FC03211F01295107FDD237C
:1028C00009F4A6C0D13009F4E5C0DD2009F4EFC059
:1028D000CC2009F4E5C0F701858180FF78C08F70B6
:1028E0008583DEC0CB352CE7D20729F1CC35DC4718
:1028F00009F090CF8091F00482FB882780F991E065
:1029000089270E94900B86CF0E94A10C8FEF94E341
:10291000ECE081509040E040E1F700C000000E94F0
:102920000E096FEF7FEF80E090E00E9476250E9415
:10293000C10C81E0E6CF80E0E4CFC8010E940A0527
:10294000C82F77CF843009F4C3C00023A9F0809149
:10295000EE0480FD11C0F70112828595859585955D
:102960000E94B204C7010E946D128091EE04859509
:10297000859585950E94C20460E0C7010E94F90711
:102980001ACE893009F44DC18A5F8F708230E8F623
:10299000D23F09F057C18C2F8F71D11050C10E94C6
:1029A000B204E8C0C03110F01295107FDD20B9F0FC
:1029B000112369F080E28D0F883010F0D11109C029
:1029C0008091E804812B8093E8040E94A70B8D2F4F
:1029D0002FC08091F104812B8093F104F6CF8D2FCD
:1029E0000E94660C112309F4B0CF80E28D0F88306D
:1029F00010F0D11104C0812F0E94920506C01095DD
:102A00008091F10481238093F1040E94A70B9DCF54
:102A10002091F00422FD16C0DD2069F0112339F069
:102A20008091E804812B8093E8040E94A70B80E04A
:102A30000E94FE0B8ACF80E00E94660C112309F4ED
:102A400084CFD9CFDD20A1F09091E904892F812B8B
:102A5000C11003C00E94900C78CFF1E0CF12FACFE2
:102A600022FF73CF981709F470CF8093E9046DCFDC
:102A7000C11006C00E949A05812F0E949A0C65CF52
:102A800021E0C21609F461CF812F0E949A0C0E94A6
:102A90009A055BCFDD2031F035E03C1508F455CFC9
:102AA000812FD8CF84E08C1508F44FCFE5CFCC2010
:102AB00019F3D93349F4FFEF27EE33E0F15020400A
:102AC0003040E1F700C000008D2F0E94660C3DCF22
:102AD0008C2F869586958370882369F0813009F064
:102AE00034CF8D2F9C2F9370D11002C080E090E0E6
:102AF0000E9495082ACF8D2F9C2F9370D11002C071
:102B000080E090E00E946F0820CF8C2F83708111AD
:102B100042C0D1102FC04D2F429546954770440FAB
:102B2000440F2D2F2F7030E0042E02C0220F331FD0
:102B30000A94E2F780E090E0D4FF09C08FE090E0D3
:102B400002C0880F991F4A95E2F780959095C69527
:102B5000C695C370C230B1F0C33089F04091EA0429
:102B60005091EB04C13049F0822B932B84239523A1
:102B70000E94A8040E94D80AE8CE242B352B822B71
:102B8000932BF6CF822B932B2091EA043091EB0408
:102B900082279327EDCFDD2091F1C0FFEBCF4D2FA2
:102BA000429546954770440F440F2D2F2F7030E00B
:102BB000042E02C0220F331F0A94E2F780E090E057
:102BC000D4FF09C08FE090E002C0880F991F4A959A
:102BD000E2F780959095C695C695C370C230C1F056
:102BE000C33099F04091EC045091ED04C13059F09C
:102BF000822B932B842395230E94AD04BBCF82307C
:102C000008F4B8CFCCCF242B352B822B932BF4CFC9
:102C1000822B932B2091EC043091ED048227932793
:102C2000EBCFCF70DD2039F08C2F0E94B2048D2FB6
:102C30000E94900C9FCF8D2F0E949A0C8C2F0E9487
:102C4000C20498CFD33F78F4D03FC1F0D13F09F40C
:102C500040C0DD2009F464C0CC2009F45EC08D2F93
:102C60000E94FE0B87CFD33F11F1D43F71F1D110F9
:102C7000F3CFC11063C08C2F8F71E1CFDD20A1F0A5
:102C800084E08C1508F476CFCF7181E090E0FC01F0
:102C900002C0EE0FFF1FCA95E2F78091EC049091FD
:102CA000ED048E279F27A8CFF5E0CF16EBCF80E06D
:102CB00090E0DD2009F4A0CFCF7181E090E002C068
:102CC000880F991FCA95E2F797CF8091F00482FD93
:102CD00006C08C2F8F71DD2009F4B1CF60CEDD20CE
:102CE00089F0CF718C2F0E94B2048091F00482FF92
:102CF00007C028E0C29FC001112483608093EE04C6
:102D00008C2F4DCE81E00E94740531E03C1508F017
:102D100031CF82E00E9474052DCF8C2F8F713FCE72
:102D2000CC2009F4A8CFD93349F48FEF97EEE3E034
:102D300081509040E040E1F700C000008D2F0E94DC
:102D4000660C18CF1F93CF93DF93809129058031B4
:102D500008F04CC080912605882309F447C0809173
:102D6000F3042091F2043091240560912505C0916F
:102D70002705D0912805732F76232817B9F190E005
:102D8000209709F443C016E07F3F09F43FC0189F25
:102D9000F001199FF00D1124DF01AC50BB4F1196CB
:102DA0004C91119746132CC04C91431329C0129695
:102DB0004C91129741111EC013964D915C914C1B82
:102DC0005D0B483C5105E0F4809129058F708061CE
:102DD00080932905E750FB4F80818F70806180834D
:102DE00084E295E00E946D120E943D05DF91CF9133
:102DF0001F9108950196877099272813C8CFF6CFA1
:102E00000196877099272813BFCFF0CF019687705E
:102E1000B4CFABE0B0E0EFE0F7E10C9441228C01DD
:102E200085E0F801DE01179601900D928A95E1F791
:102E3000F801F280C380D48084E2A82E85E0B82E09
:102E40009091240520912505409127055091280552
:102E50004115510509F4FEC0892F82238F3F09F4E3
:102E6000F9C0E0902605B601641B750BEE2009F44D
:102E7000C5C080912905683C710508F0A1C0B180EA
:102E8000803108F061C02B1113C02081291310C0BC
:102E9000F1103EC08F7080618093290584E295E037
:102EA0000E946D1280912905F8018583F12C29C0BB
:102EB000AF80C114D10451F18A2D8B218F3F31F1A4
:102EC000F11026C040E06B2D8A2D0E94960A40E04A
:102ED0006B2D8A2D0E94960AF82E8111E7CF8F81E3
:102EE00098850E941908292F22952F709034B0F4EC
:102EF0009F702230E0F09923F1F0F8019581903134
:102F0000D0F48F2D2B96EAE00C945D22FF2071F215
:102F100080912905816080932905C8CF2A5F2F7091
:102F2000223068F0C8010E946D12FE2CEACF99236E
:102F300011F0882331F3805E883018F3F3CF803F9F
:102F400000F3815F8230F9CF2B1112C02081291349
:102F50000FC0F1100DC08583C8010E946D1286E07C
:102F6000F801A4E2B5E001900D928A95E1F725C041
:102F7000C8010E942808882309F468C0FF2009F4CA
:102F800065C080912905803270F020912405309130
:102F900025053A8329831B82DD82CC828E83CE0174
:102FA00001960E946D1286E0F801A4E2B5E001905E
:102FB0000D928A95E1F70E94A216FF24F394A1CF07
:102FC000803150F484E295E00E946D1286E0F501B4
:102FD00011928A95E9F76ACF31813213C9CF2081E6
:102FE0002913C6CFF110C4CF8583C8010E946D128A
:102FF00086E0F50111928A95E9F7DFCF683C71050B
:1030000028F7FF2019F18181821316C0808189136E
:1030100013C08091290580FDA2CF803108F49FCF95
:103020008583807F803F09F497CF8581982F907F9B
:10303000905F8F70892B8FCFC8010E942808811163
:10304000B2CF80912905816080932905C8010E9433
:103050006D12B3CFFF20D1F3C8010E942808882346
:10306000A9F386E0F801A4E2B5E001900D928A95FB
:10307000E1F780912405909125050E9419089BCFC6
:10308000A7E1B0E0E6E4F8E10C9448224B8B5C8BBE
:10309000962F6D8B7E8B8F8B61111092F1041A8AA3
:1030A00085E0FE017396DE011D9601900D928A95D2
:1030B000E1F79F8786E0FE013D96DE0117960190BD
:1030C0000D928A95E1F7CE0107960E9409178111AA
:1030D00031C086E0FE013796DE01119601900D9217
:1030E0008A95E1F78F8198852091F2044091F3044D
:1030F0006A857B85672BF1F089238F3FD9F030E01B
:10310000C90101968770992750E084179507E9F067
:1031100096E0929FD001939FB00D1124AC50BB4F0D
:10312000FE01319601900D929A95E1F78093F20499
:103130000E943D0516E08091F3049091F2048913FA
:1031400012C06796E3E00C9464220E94A10C1092D6
:10315000F2041092F30486E0E4E2F5E0DF011D9250
:103160008A95E9F7E7CF189FC00111248C509B4F37
:103170000E940917882329F38091F30490E00196B7
:10318000877099278093F304D6CFA5E0B0E0EBECED
:10319000F8E10C9447220E94F1118C018091920475
:1031A000909193048017910791F08FEF89838A8320
:1031B0001B820E94F1118160782F49815A816B81B5
:1031C000892F0E944018109393040093920425962F
:1031D000E4E00C946322A0E1B0E0E1EFF8E10C94AC
:1031E0003E221A821982FE01339686E0DF011D928B
:1031F0008A95E9F78AE3A82E81E0B82E8E010F5F49
:103200001F4F4801EE24E394F12C24E4C22E21E068
:10321000D22EF50181915F018F3F09F441C0F894EE
:10322000E82FE295EF70F0E021A18F70A70102C0B6
:10323000440F551F8A95E2F7CA01922F982B91A34C
:1032400092A18095892382A3789400C0EEE3F1E0F7
:1032500031E0712C21912F3F09F465C0A22FA29576
:10326000AF70A05EB0E08C9190E02F7002C0959599
:1032700087952A95E2F78170811155C0832F782AAE
:10328000330FCE16DF0631F7F501319780818F3F7E
:1032900011F00E94560850EA5A95F1F7D8017C9235
:1032A0000F5F1F4FBEE3AB16B1E0BB0609F0B1CF15
:1032B00048E050E0B40186E292E00E948B22009147
:1032C0002F02892B91F188E0F401A6E2B2E001908F
:1032D0000D928A95E1F781E08093EB010E94F11154
:1032E0009093EA018093E9018091E9019091EA01CC
:1032F0000E94FD110597E8F010E00E5C1D4F44E0C0
:1033000050E066E272E0C8010E948B22892B41F0F6
:1033100084E0E6E2F2E0D80101900D928A95E1F7AF
:103320001092EB0106C080E0AACF8091EB018111E1
:10333000DBCF0E94B50AE0912F02882309F46DC00B
:103340001A8619861C861B860E2F10E00E5C1D4FF8
:103350008091F4018A3058F57E01E9E0EE0EF11C0F
:103360004CEF5FE0B701C8010E94560B670188234C
:1033700009F441C048E85FE0B701C8010E94560B5C
:103380008823C9F11092F40180912E0290E044E06C
:1033900050E0B6018E5C9D4F0E948B2221E020936D
:1033A000E801892BD1F46096EDE00C945A228091CB
:1033B000E6019091E7010E94FD11843F914060F683
:1033C0008091E801882379F3FE01399684E0DF01DA
:1033D0001D928A95E9F71092E801E0912E02F0E043
:1033E000EE5CFD4F89859A85AB85BC858083918392
:1033F000A283B383D8CF8091F4018F3F39F40E9428
:10340000F1119093E7018093E601DACF8F5F80930B
:10341000F4018A3008F4B8CFF2CFF0E0EE5CFD4F53
:1034200080819181A281B3818093800490938104F3
:10343000A0938204B093830480E894E00E94EB0997
:1034400080937F04C0908404D0908504E09086042B
:10345000F09087048091E2019091E301A091E40152
:10346000B091E501C816D906EA06FB0609F49BCF20
:10347000C092E201D092E301E092E401F092E50112
:103480000E94B50A81118FCF0E94F108C61AD70A8F
:10349000E80AF90AC0927304D0927404E0927504A9
:1034A000F092760480CFCDB7DEB729970FB6F894A7
:1034B000DEBF0FBECDBF85B7806885BF85B780688A
:1034C00085BF84B7877F84BF0FB6F894A895809195
:1034D0006000886180936000109260000FBE80E8F9
:1034E00090E00FB6F89480936100909361000FBE56
:1034F00084E598E09093C1018093C0010E94CC09BB
:103500000E943B0A8091E20084608093E2007894FC
:1035100080919004882399F08091E9001091EC004B
:103520001795112717958F70182B1092E90080912D
:10353000E80083FD0E94D70C1F701093E90082E021
:1035400084BD93E095BD9AEF97BD80936E00109275
:1035500073041092740410927504109276040E9401
:10356000B50A809300010E94B50A81110E94C22011
:10357000809100018091000191E08927880F880FD8
:1035800080932F0294E0981B90932E0284E90E946E
:10359000560886E60E94560887E90E94560886EC7F
:1035A0000E9456080EE311E0D8018D918D018F3FE6
:1035B00011F00E945608B1E004341B07A9F788E017
:1035C000E2E3F2E0DF01282F1D922A95E9F7E6E217
:1035D000F2E0DF011D928A95E9F780E090E00E9419
:1035E0005225873E9E4F09F45EC067EE7EEF80E075
:1035F00090E00E94762560E082E090E00E945825ED
:1036000060E083E090E00E9458251092EB04109255
:10361000EA0460E074E184E090E00E94762560E0D6
:1036200086E090E00E9458256FEF87E090E00E94CE
:10363000582540E050E0BA0188E090E00E946A25F9
:1036400060E08DE090E00E94582540E050E0BA0133
:1036500088E190E00E946A2560E087E190E00E94A6
:10366000582540E050E0BA018CE190E00E946A25C4
:1036700060E070E080E290E00E94762540E050E05B
:10368000BA0188E190E00E946A2540E050E0BA016A
:103690008FE090E00E946A2540E050E0BA0183E1AB
:1036A00090E00E946A2582E090E00E944A25809383
:1036B0003A0284E090E00E9452259093F0048093B7
:1036C000EF040E94EB18EFEFF6E721E0E150F04045
:1036D0002040E1F700C000000E94EB180E94B50AEC
:1036E00011E0E82FE127EE0FEE0FF0E0EE5CFD4F6A
:1036F000808181FF08C06FEF7FEF80E090E00E9443
:1037000076250E940E0983E090E00E944A2590E011
:103710000E94A8040E94B50A8127880F809366043E
:1037200080E8809345020E946B1F6DE070E081E2AB
:1037300097E00E94A110892B09F043C08091660494
:1037400063E070E081FDBBC08EE197E00E94A110B4
:10375000892BB9F56DE070E08EE097E00E94A11032
:10376000892B79F50E94F1086E837F83888799877A
:10377000DC01CB01805A9541AF4FBF4F80936A0463
:1037800090936B04A0936C04B0936D04E6E6F2E0B2
:1037900080E092E0DF019C011D9221503040E1F772
:1037A000F0934402E09343028FEF9FEF90936904FC
:1037B0008093680481E08093710480936E0410927A
:1037C00067040E94B50A811102C00E94C52081E0F1
:1037D00091E0909395048093940466246394712CF3
:1037E00080919004853049F480919004853009F4EB
:1037F00069C00E94A10C0E94D80A0E94EB186BE3DA
:10380000E62E62E0F62E72E3C72E72E0D72ED601C6
:10381000F70191918D9123E432E02E173F0709F4CF
:10382000A4C09817B1F30E94B50A882E10E0D60103
:103830000D916D01F70191907F01901639F190265D
:10384000B12CAA24A394892D8A218823B9F0882039
:10385000A9F0B9821A8391E0802F8A21811101C0D9
:1038600090E09B830E94F1118160782F9D838C836F
:1038700049815A816B81892F0E944018B394AA0C08
:10388000F6E0BF12E0CFF701319700831F5F1830D9
:1038900071F60E94F1080E94B50AD0907104D1100F
:1038A00070C00E94DD100E94D80A9091720489179E
:1038B00009F496CF809372040E94F10891CF8BE1B6
:1038C00097E044CF80919004843031F10E94CA1077
:1038D0001092300248E150E080E40FB6F894A895C9
:1038E000409360000FBE8093600083B7817F846047
:1038F00083BF83B7816083BF7894889583B78E7FB9
:1039000083BF0FB6F894A89580916000886180937A
:103910006000109260000FBE80913102882309F48C
:1039200063CF0E94EB18E2E3F2E08191811105C0C0
:1039300092E0EA33F907C9F757CF80E189BD82E108
:1039400089BD09B400FEFDCF8091D8008F7D8093A2
:10395000D8008091E00082608093E0008091E000D8
:1039600081FDFCCF0E94A10C3FCF98135CCF0E9439
:10397000C5180E94B50A80917104882309F493CF79
:10398000D12C80916F04909170040E94FD11C29718
:10399000A8F10E94F1119093700480936F0486E661
:1039A00092E090934402809343020E94B50A8823D8
:1039B00009F487C089E897E00E94BC118091EC046B
:1039C0009091ED048430910509F472C008F056C05E
:1039D000009709F462C0029709F467C0EEECF4E0C6
:1039E00001900020E9F78F01015011095EECE52EEE
:1039F00054E0F52EE016F10608F45DC080916804ED
:103A000090916904892B99F080917104882379F051
:103A10008091670481110BC00E94DD102091680421
:103A20003091690480E02115310509F050C0809182
:103A30006E048823F9F00E94F1086E837F838887E3
:103A4000998780916A0490916B04A0916C04B09165
:103A50006D042E813F8148855985281B390B4A0BFF
:103A60005B0BDA01C9018F3F9F4FAF4FBF4710F487
:103A70000E94CA10DD2009F416CF13CF08978730B3
:103A8000910508F0ABCF95E501C096958A95EAF7C8
:103A900090FFA4CF8EE697E002C081E897E00E94F5
:103AA000BC1181E00E948A1199CF8BE797E0F7CF94
:103AB00085E797E0F4CFD7018D917D010E940A112F
:103AC00099CF8EE297E00E94BC1198CF8F5F082FAC
:103AD00010E07301082E02C0EE0CFF1C0A94E2F7FE
:103AE000A70142235323452B89F3909166049170DB
:103AF000911142C098013695279536952795829564
:103B0000880F80763FE1380F80930B0120930E01E0
:103B100030930C0190930F0124E630E047E050E031
:103B200069E071E088E70E941020892B09F07FCFBF
:103B3000A80125E0440F551F2A95E1F780916604FE
:103B400080FD22C04A595D4F04E610E020E230E0DB
:103B500060E488E70E943720892B09F068CFE09461
:103B6000F0948091680490916904E822F922F0921F
:103B70006904E09268045BCF880F880F880F37E0F4
:103B8000380F20E093E0C0CFE6E4F2E080E2DF010E
:103B90001D928A95E9F7E8E4F1E0FF83EE8304E4FF
:103BA00011E09CE4292E91E0392EAE81BF816D9108
:103BB000BF83AE83F80181918F01840F952F911DF2
:103BC0009C012A593D4F2901E62FF0E0EA5BFD4FA9
:103BD00020E030E087E0982E921AC62C022E01C019
:103BE000CC0C0A94EAF7520190E0D5018D915D0169
:103BF0008C21692D691B677070E0B82F062E01C0FB
:103C0000BB0F0A94EAF77195619571096770772780
:103C100001C086956A95EAF78B2B6081862B80839D
:103C20009F5F983011F72F5F3F4F31962830310555
:103C300089F6EE81FF812E163F0609F0B6CF04E625
:103C400010E020E230E046E452E082CF78941F9208
:103C50001FB61F9211248F939F93AF93BF938091B0
:103C60007B0490917C04A0917D04B0917E04019628
:103C7000A11DB11D80937B0490937C04A0937D04CF
:103C8000B0937E04BF91AF919F918F911F901FBE03
:103C90001F9018951F920F920FB60F9211242F9319
:103CA0003F934F935F936F937F938F939F93AF93C4
:103CB000BF93EF93FF938091E10082FF09C0809151
:103CC000E20082FF05C08091E1008B7F8093E100DC
:103CD0008091DA0080FF24C08091D80080FF20C04E
:103CE0008091DA008E7F8093DA008091D90080FF86
:103CF0009BC080E189BD82E189BD09B400FEFDCF92
:103D000081E0809390048091F801811109C00E94A4
:103D1000CC090E943B0A8091E20084608093E2001B
:103D20008091E10080FF17C08091E20080FF13C006
:103D30008091E2008E7F8093E2008091E2008061BA
:103D40008093E2008091D80080628093D80019BCF3
:103D500085E0809390048091E10084FF29C08091E8
:103D6000E20084FF25C080E189BD82E189BD09B4FC
:103D700000FEFDCF8091D8008F7D8093D800809188
:103D8000E1008F7E8093E1008091E2008F7E80933E
:103D9000E2008091E20081608093E2008091F7016F
:103DA000882309F447C084E08093900480919004B4
:103DB0008091E10083FF27C08091E20083FF23C050
:103DC0008091E100877F8093E10082E080939004FE
:103DD0001092F7018091E1008E7F8093E100809145
:103DE000E2008E7F8093E2008091E2008061809308
:103DF000E20042E060E080E00E94040A8091F0006E
:103E000088608093F000FF91EF91BF91AF919F91F7
:103E10008F917F916F915F914F913F912F910F9073
:103E20000FBE0F901F90189519BC1092900410921D
:103E3000F80176CF8091E30087FF02C083E0B4CF22
:103E400081E0B2CF1F920F920FB60F921124FF9212
:103E50000F931F932F933F934F935F936F937F9392
:103E60008F939F93AF93BF93CF93DF93EF93FF9382
:103E700009EE10E0F8018081C091EC00C795CC27D5
:103E8000C7958F70FC2EF82A1082C0EFD0E0888191
:103E9000877F888378940E94D70CF80110828881EC
:103EA00088608883CF2DCF70C083FF91EF91DF9121
:103EB000CF91BF91AF919F918F917F916F915F91C2
:103EC0004F913F912F911F910F91FF900F900FBE37
:103ED0000F901F9018951092B9008CE08093B80055
:103EE0000895A0E0B0E0E7E7FFE10C944022B82E8F
:103EF000EB010E94F1116C01EE24E394F12CC4312A
:103F0000D10560F025E0E22EF12CCF3FDC0731F047
:103F1000CE0164E170E00E9425227B0184EAA82E94
:103F200094E8992E1092BC00A092BC000E94F1115E
:103F3000182F092F8091BC0087FF0CC08091B90019
:103F4000887F8830F9F08091B900887F8031D1F086
:103F50000FEF08C0812F902F0E94FD11E816F9067F
:103F600048F70EEF1FEFCF3FDC07E1F2C6010E94DA
:103F7000FD11C817D907B0F6C801CDB7DEB7EBE021
:103F80000C945C22B092BB009092BC000E94F11194
:103F9000182F092F8091BC0087FF0AC02091B9001B
:103FA000287F283111F0203499F600E010E0E4CFAA
:103FB000812F902F0E94FD11E816F90658F7D1CFF6
:103FC0000F931F93CF93DF93EB018093BB0084E8A3
:103FD0008093BC000E94F111182F092F8091BC0022
:103FE00087FF11C02091B900287F81E090E028323E
:103FF00011F480E090E0919581959109DF91CF9146
:104000001F910F910895CF3FDC0741F3812F902F2F
:104010000E94FD11C817D90708F78EEF9FEFEECF6A
:10402000A0E0B0E0E6E1F0E20C9443226B018A01EB
:10403000F22EE32E622F732F0E94711FAC01E60156
:104040000C0D1D1DC017D10711F057FF09C084E9E1
:104050008093BC00CA01CDB7DEB7E8E00C945F22C4
:104060006F2D7E2D89910E94E01FAC01EBCFA0E067
:10407000B0E0EDE3F0E20C944322C62F6A0179012F
:10408000B8010E94711F9C0197FD0DC0B8018C2FD3
:104090000E94E01F9C01E601EC0CFD1CCE15DF0523
:1040A00011F037FF09C084E98093BC00C901CDB786
:1040B000DEB7E8E00C945F22B80189910E94E01F0E
:1040C0009C01ECCF84E98093BC0008958EE14A9B6B
:1040D00003C081508111FBCF4A9BFECF08955A98AF
:1040E00080E28A95F1F75A9A0895FC013BE03A95EF
:1040F000F1F798E020E080E031E040E14A95F1F707
:10410000880F4A9B02C08160232742E04A95F1F75D
:10411000000040E14A95F1F791509111EECF90E106
:104120009A95F1F799B132E03A95F1F7000040E144
:104130004A95F1F792FB992790F992272081920FE7
:1041400090830895A1E0B0E0E8EAF0E20C94452203
:1041500019828C017C01E60EF11C0E151F0541F43D
:1041600081E09981911180E02196E6E00C94612232
:104170000E946620CE0101960E947520F80181936D
:104180008F01EBCF529A5A9A089552985A9AEA9A06
:10419000E9E6F0E080818F7C808308956150770BA1
:1041A00091E001C0990F6A95EAF7692F90E021E04C
:1041B000611108C0992399F05A9A80E28A95F1F723
:1041C0005A980895362F3823332339F05A9A922774
:1041D00030E23A95F1F76695EBCF5A98F9CF5A98B5
:1041E000ECCFFF920F931F93CF93DF93EC018C01E1
:1041F000060F111DC017D10729F4CDB7DEB7E5E0D2
:104200000C946222F9900E946F2068E08F2D0E942A
:10421000CE20F0CF1F920F920FB60F9211240F9362
:104220001F932F933F934F935F936F937F938F933E
:104230009F93AF93BF93EF93FF93CF93DF930F922F
:10424000CDB7DEB719820E946620CE0101960E948A
:104250007520082F069506950695982F92959570CE
:10426000202F2570920F292F237096959695920FE7
:10427000982797708981892B81115CC0043008F0E0
:1042800059C080E18A95F1F75A9A529A82E08A954C
:10429000F1F700C05A9888E0089F80011124D801E6
:1042A000A05FBE4F1696ED91FC9117973097A9F03D
:1042B00060914C0170914D0114962D913C91159790
:1042C000260F371F11968D919C911297680F791FB9
:1042D00013964C9113978C910995F801E05FFE4F6E
:1042E0006381662351F020914C0130914D0184810E
:1042F0009581820F931F0E94F1200E946F2080E120
:104300008A95F1F75A9852985A9A80E18A95F1F76E
:10431000F801E05FFE4F6081662351F020914C016F
:1043200030914D0181819281820F931F0E94A220C2
:104330000E9466200F90DF91CF91FF91EF91BF9186
:10434000AF919F918F917F916F915F914F913F912D
:104350002F911F910F910F900FBE0F901F901895E6
:104360000F931F93CF93DF938C0104970CF065C0DC
:10437000F894529A5A9885E08A95F1F70000C02F78
:10438000C695C570802F8570C80F8C2F8370C69519
:10439000C69593E0000F111F9A95E1F7C80FC80169
:1043A0008C2BEC010E946F2000C068E08C2F0E94D3
:1043B000CE2090E19A95F1F752985A9A4A9B35C0CF
:1043C00087E090E04A9933C0F801E05FFE4F6381D7
:1043D000662361F020914C0130914D0184819581DB
:1043E000820F931F0E94A220882321F10E94662041
:1043F00080E28A95F1F75A98529A90E19A95F1F7EE
:10440000F801E05FFE4F6081662351F020914C017E
:1044100030914D0181819281820F931F0E94F12082
:104420000E946F20789481E009C000C0C7CF019737
:10443000009749F4529A5A9A789480E0DF91CF918C
:104440001F910F91089500C0BDCFAA1BBB1B51E166
:1044500007C0AA1FBB1FA617B70710F0A61BB70BF4
:10446000881F991F5A95A9F780959095BC01CD0199
:1044700008952F923F924F925F926F927F928F9208
:104480009F92AF92BF92CF92DF92EF92FF920F93E3
:104490001F93CF93DF93CDB7DEB7CA1BDB0B0FB6ED
:1044A000F894DEBF0FBECDBF09942A8839884888AA
:1044B0005F846E847D848C849B84AA84B984C88440
:1044C000DF80EE80FD800C811B81AA81B981CE0F37
:1044D000D11D0FB6F894DEBF0FBECDBFED0108951C
:1044E000991B79E004C0991F961708F0961B881F46
:1044F0007A95C9F780950895EE0FFF1F0590F49106
:10450000E02D0994FB01DC0102C005900D924150A1
:104510005040D8F70895FB01DC0104C08D91019053
:10452000801921F441505040C8F7881B990B089519
:10453000FB01DC0102C001900D9241505040D8F7C0
:104540000895AEE0B0E0E7EAF2E20C9447220D896C
:104550001E8986E08C831A8309838F89988D813028
:1045600020E8920710F080E090E801979E838D8309
:10457000AE01455E5F4F698D7A8DCE0101960E9436
:10458000D3224D815E8157FD0AC02F8138854217A5
:1045900053070CF49A01020F131FF80110822E9694
:1045A000E4E00C946322AFE0B0E0E9EDF2E20C94B9
:1045B00039227C013B018A01DC0117961C921E9274
:1045C000169713968C9181FFBEC19AE0292EFE01A9
:1045D00031964F01D70113969C91F30193FD85917C
:1045E00093FF81913F01882309F444C1853239F456
:1045F00093FD859193FF81913F01853229F4B701A5
:1046000090E00E94BC24E6CFB12C412C512CBFE19C
:10461000B51538F08B3209F188F4803201F183321C
:1046200021F157FC3AC020ED280F2A3040F556FE04
:104630001FC0B29C200D1124B22E06C08D3291F005
:10464000803379F7689450F8F30193FD859193FFD7
:1046500081913F018111DBCF20C0689451F86894AB
:1046600052F8F2CF689453F8EFCF689454F8ECCF37
:10467000429C200D1124422E689455F8E5CF8E32CD
:1046800029F456FCF7C0689456F8DECF8C3619F43E
:10469000689457F8D9CF8836B9F2982F9F7D9554F2
:1046A0009330C0F0833681F18337A1F1833509F06F
:1046B0005BC0D801CD90DD908D016B2D70E056FC74
:1046C00002C06FEF7FEFC6010E94A6245C016894D0
:1046D00057F80AC00C5F1F4FEFE3E983AA24A394A5
:1046E000B12C6401E89457F853FE29C0342CA1146E
:1046F000B10451F5332009F46DCFB70180E290E0A9
:104700000E94BC243A94F6CFD8018C9189830E5F25
:104710001F4FE4CFF801C190D1908F016B2D70E055
:1047200056FC02C06FEF7FEFC6010E94B1245C010E
:10473000D9CFB70180E290E00E94BC244A944A1489
:104740001B0409F0B0F7D2CFF60157FC859157FE54
:1047500081916F01B70190E00E94BC2431103A941E
:10476000B1E0AB1AB108C3CF843619F0893609F02D
:1047700071C0F80157FE67C061917191819191916B
:104780008F01E52DEF76DE2E97FF09C0909580957D
:10479000709561957F4F8F4F9F4F6894D7F82AE0AF
:1047A00030E0A4010E94EC24C82EC818AC2C5D2C6B
:1047B000D6FE0CC0E89450F8CB1440F4D4FE05C0EB
:1047C000D2FC03C05D2D5E7E552EAB2C54FE93C0F3
:1047D000FE01EC0DF11D8081803309F085C0652D4F
:1047E000697E562E752D7870372E53FC93C050FE7F
:1047F0008DC0BC2CA41410F4B40CBA1854FE90C094
:10480000B70180E390E00E94BC2452FE07C088E715
:1048100051FC88E590E0B7010E94BC24CB1408F459
:104820008BC0CA94D12C8FEFC81AD80AC80CD91CD7
:10483000D6018E916D01B70190E00E94BC248C14CA
:104840009D04B1F757CF61917191072E000C880B31
:10485000990B96CFD52CE894D4F82AE0853729F126
:10486000F52DF97FDF2E8037A1F058F48835A1F0BF
:104870008F36D1F0F701868197812F96E2E10C9473
:1048800055228837B9F7D4FE02C06894D2F820E1E7
:104890000CC06894D4F8F7CF54FE03C02F2F2660C5
:1048A000D22E20E132E002C028E030E0F801D7FE4D
:1048B00015C041915191619171914C875D876E87CF
:1048C0007F878F01A4016C857D858E859F850E94E1
:1048D000EC24C82EC818E894D7F868CF819191913C
:1048E000AC0170E060E0E9CF52FC02C0A3947ACF43
:1048F000A394A39477CF852D867809F473CFF6CF50
:10490000B70180E290E00E94BC24A394A414C0F3F9
:10491000312C74CF342C3A18A41408F46FCFF8CF8C
:10492000852D867809F47ACF8BE251FE80E257FC20
:104930008DE2B70190E070CFB70180E390E00E9474
:10494000BC24BA946BCF8FEF9FEF97CFFC010590FB
:10495000615070400110D8F7809590958E0F9F1F81
:104960000895FC016150704001900110D8F78095C6
:1049700090958E0F9F1F08950F931F93CF93DF93F2
:10498000182F092FEB018B8181FD09C01FEF0FEF5D
:10499000812F902FDF91CF911F910F91089582FF6A
:1049A00014C02E813F818C819D81281739073CF4EA
:1049B000E881F981CF0101969983888310838E81E4
:1049C0009F8101969F838E83E3CFE885F985812FB0
:1049D0000995892BA1F3DACFFA01AA27283051F1E2
:1049E000203181F1E8946F936E7F6E5F7F4F8F4F20
:1049F0009F4FAF4FB1E03ED0B4E03CD0670F781F7F
:104A0000891F9A1FA11D680F791F8A1F911DA11D63
:104A10006A0F711D811D911DA11D20D009F468949C
:104A20003F912AE0269F11243019305D3193DEF644
:104A3000CF010895462F4770405D4193B3E00FD0FA
:104A4000C9F7F6CF462F4F70405D4A3318F0495DE5
:104A500031FD4052419302D0A9F7EACFB4E0A695C8
:104A60009795879577956795BA95C9F700976105EA
:104A7000710508959B01AC010A2E06945795479540
:104A800037952795BA95C9F7620F731F841F951F35
:104A9000A01D0895F999FECF92BD81BDF89A99277E
:104AA00080B50895A8E1B0E042E050E00C947E2586
:104AB000262FF999FECF92BD81BDF89A019700B4D7
:104AC000021639F01FBA20BD0FB6F894FA9AF99A77
:104AD0000FBE08950396272F0E9459250E9458253E
:104AE000252F0E945925242F0C9459250196272FF4
:104AF0000E9459250C945825DC01CB01FC01F99941
:104B0000FECF06C0F2BDE1BDF89A319600B40D9219
:104B100041505040B8F70895F894FFCFB40DDA0D26
:104B2000E00DDA0DE00D330E550EE00D530F600F62
:104B3000E412E812C612E012EC12F012F412621340
:104B4000CD136A13341338136E133C1372137E1390
:104B50004813C6134C13821350138613AE13541309
:104B60008A13B5135A1390139813401376134413F2
:104B70007A135E139413A413BE13C4132E13661377
:024B8000D4134C
:104B8200011F09270B22094F0B0021007F2200037E
:104B9200000000010000000000000004010000000D
:104BA20004050000000000000125647825642C2023
:104BB2006B253264203A20256300946697C6F4F58B
:104BC200F6F7313300081018181008007F04E200CD
:104BD200E900EA00B500B600B700CD008301CC00C1
:104BE2008A01920194012102230224022502260253
:104BF20027022A02B300B4006F0070009F01CB01AC
:104C02009F02A002202020206162636465666768BB
:104C1200696A6B6C6D6E6F7071727374757677788A
:104C2200797A313233343536373839305245425455
:104C32005F2D3D5B5D5C233B27602C2E2F202020C7
:00000001FF
